{
  "address": "0xe3842a8FB3166579b53338e2c7fdf59e95D73344",
  "abi": [
    {
      "inputs": [
        {
          "internalType": "uint256",
          "name": "_price",
          "type": "uint256"
        },
        {
          "internalType": "string",
          "name": "uri_",
          "type": "string"
        }
      ],
      "stateMutability": "nonpayable",
      "type": "constructor"
    },
    {
      "inputs": [],
      "name": "ApprovalCallerNotOwnerNorApproved",
      "type": "error"
    },
    {
      "inputs": [],
      "name": "ApprovalQueryForNonexistentToken",
      "type": "error"
    },
    {
      "inputs": [],
      "name": "ApprovalToCurrentOwner",
      "type": "error"
    },
    {
      "inputs": [],
      "name": "ApproveToCaller",
      "type": "error"
    },
    {
      "inputs": [],
      "name": "BalanceQueryForZeroAddress",
      "type": "error"
    },
    {
      "inputs": [],
      "name": "MintToZeroAddress",
      "type": "error"
    },
    {
      "inputs": [],
      "name": "MintZeroQuantity",
      "type": "error"
    },
    {
      "inputs": [],
      "name": "OwnerQueryForNonexistentToken",
      "type": "error"
    },
    {
      "inputs": [],
      "name": "TransferCallerNotOwnerNorApproved",
      "type": "error"
    },
    {
      "inputs": [],
      "name": "TransferFromIncorrectOwner",
      "type": "error"
    },
    {
      "inputs": [],
      "name": "TransferToNonERC721ReceiverImplementer",
      "type": "error"
    },
    {
      "inputs": [],
      "name": "TransferToZeroAddress",
      "type": "error"
    },
    {
      "inputs": [],
      "name": "URIQueryForNonexistentToken",
      "type": "error"
    },
    {
      "anonymous": false,
      "inputs": [
        {
          "indexed": true,
          "internalType": "address",
          "name": "owner",
          "type": "address"
        },
        {
          "indexed": true,
          "internalType": "address",
          "name": "approved",
          "type": "address"
        },
        {
          "indexed": true,
          "internalType": "uint256",
          "name": "tokenId",
          "type": "uint256"
        }
      ],
      "name": "Approval",
      "type": "event"
    },
    {
      "anonymous": false,
      "inputs": [
        {
          "indexed": true,
          "internalType": "address",
          "name": "owner",
          "type": "address"
        },
        {
          "indexed": true,
          "internalType": "address",
          "name": "operator",
          "type": "address"
        },
        {
          "indexed": false,
          "internalType": "bool",
          "name": "approved",
          "type": "bool"
        }
      ],
      "name": "ApprovalForAll",
      "type": "event"
    },
    {
      "anonymous": false,
      "inputs": [],
      "name": "Deploy",
      "type": "event"
    },
    {
      "anonymous": false,
      "inputs": [
        {
          "indexed": true,
          "internalType": "address",
          "name": "previousOwner",
          "type": "address"
        },
        {
          "indexed": true,
          "internalType": "address",
          "name": "newOwner",
          "type": "address"
        }
      ],
      "name": "OwnershipTransferred",
      "type": "event"
    },
    {
      "anonymous": false,
      "inputs": [
        {
          "indexed": true,
          "internalType": "address",
          "name": "from",
          "type": "address"
        },
        {
          "indexed": true,
          "internalType": "address",
          "name": "to",
          "type": "address"
        },
        {
          "indexed": true,
          "internalType": "uint256",
          "name": "tokenId",
          "type": "uint256"
        }
      ],
      "name": "Transfer",
      "type": "event"
    },
    {
      "anonymous": false,
      "inputs": [
        {
          "indexed": true,
          "internalType": "address",
          "name": "account",
          "type": "address"
        }
      ],
      "name": "Unwhitelisted",
      "type": "event"
    },
    {
      "anonymous": false,
      "inputs": [
        {
          "indexed": true,
          "internalType": "address",
          "name": "account",
          "type": "address"
        }
      ],
      "name": "Whitelisted",
      "type": "event"
    },
    {
      "inputs": [
        {
          "internalType": "address",
          "name": "_account",
          "type": "address"
        }
      ],
      "name": "addWhitelist",
      "outputs": [],
      "stateMutability": "nonpayable",
      "type": "function"
    },
    {
      "inputs": [
        {
          "internalType": "address[]",
          "name": "_accounts",
          "type": "address[]"
        }
      ],
      "name": "addWhitelistBatch",
      "outputs": [],
      "stateMutability": "nonpayable",
      "type": "function"
    },
    {
      "inputs": [
        {
          "internalType": "address",
          "name": "to",
          "type": "address"
        },
        {
          "internalType": "uint256",
          "name": "tokenId",
          "type": "uint256"
        }
      ],
      "name": "approve",
      "outputs": [],
      "stateMutability": "nonpayable",
      "type": "function"
    },
    {
      "inputs": [
        {
          "internalType": "address",
          "name": "owner",
          "type": "address"
        }
      ],
      "name": "balanceOf",
      "outputs": [
        {
          "internalType": "uint256",
          "name": "",
          "type": "uint256"
        }
      ],
      "stateMutability": "view",
      "type": "function"
    },
    {
      "inputs": [
        {
          "internalType": "uint256",
          "name": "_quantity",
          "type": "uint256"
        }
      ],
      "name": "buy",
      "outputs": [],
      "stateMutability": "payable",
      "type": "function"
    },
    {
      "inputs": [
        {
          "internalType": "uint256",
          "name": "tokenId",
          "type": "uint256"
        }
      ],
      "name": "getApproved",
      "outputs": [
        {
          "internalType": "address",
          "name": "",
          "type": "address"
        }
      ],
      "stateMutability": "view",
      "type": "function"
    },
    {
      "inputs": [],
      "name": "getBalance",
      "outputs": [
        {
          "internalType": "uint256",
          "name": "",
          "type": "uint256"
        }
      ],
      "stateMutability": "view",
      "type": "function"
    },
    {
      "inputs": [
        {
          "internalType": "address",
          "name": "owner",
          "type": "address"
        },
        {
          "internalType": "address",
          "name": "operator",
          "type": "address"
        }
      ],
      "name": "isApprovedForAll",
      "outputs": [
        {
          "internalType": "bool",
          "name": "",
          "type": "bool"
        }
      ],
      "stateMutability": "view",
      "type": "function"
    },
    {
      "inputs": [],
      "name": "name",
      "outputs": [
        {
          "internalType": "string",
          "name": "",
          "type": "string"
        }
      ],
      "stateMutability": "view",
      "type": "function"
    },
    {
      "inputs": [],
      "name": "owner",
      "outputs": [
        {
          "internalType": "address",
          "name": "",
          "type": "address"
        }
      ],
      "stateMutability": "view",
      "type": "function"
    },
    {
      "inputs": [
        {
          "internalType": "uint256",
          "name": "tokenId",
          "type": "uint256"
        }
      ],
      "name": "ownerOf",
      "outputs": [
        {
          "internalType": "address",
          "name": "",
          "type": "address"
        }
      ],
      "stateMutability": "view",
      "type": "function"
    },
    {
      "inputs": [],
      "name": "price",
      "outputs": [
        {
          "internalType": "uint256",
          "name": "",
          "type": "uint256"
        }
      ],
      "stateMutability": "view",
      "type": "function"
    },
    {
      "inputs": [
        {
          "internalType": "address",
          "name": "_account",
          "type": "address"
        }
      ],
      "name": "removeWhitelist",
      "outputs": [],
      "stateMutability": "nonpayable",
      "type": "function"
    },
    {
      "inputs": [
        {
          "internalType": "address[]",
          "name": "_accounts",
          "type": "address[]"
        }
      ],
      "name": "removeWhitelistBatch",
      "outputs": [],
      "stateMutability": "nonpayable",
      "type": "function"
    },
    {
      "inputs": [],
      "name": "renounceOwnership",
      "outputs": [],
      "stateMutability": "nonpayable",
      "type": "function"
    },
    {
      "inputs": [
        {
          "internalType": "address",
          "name": "from",
          "type": "address"
        },
        {
          "internalType": "address",
          "name": "to",
          "type": "address"
        },
        {
          "internalType": "uint256",
          "name": "tokenId",
          "type": "uint256"
        }
      ],
      "name": "safeTransferFrom",
      "outputs": [],
      "stateMutability": "nonpayable",
      "type": "function"
    },
    {
      "inputs": [
        {
          "internalType": "address",
          "name": "from",
          "type": "address"
        },
        {
          "internalType": "address",
          "name": "to",
          "type": "address"
        },
        {
          "internalType": "uint256",
          "name": "tokenId",
          "type": "uint256"
        },
        {
          "internalType": "bytes",
          "name": "_data",
          "type": "bytes"
        }
      ],
      "name": "safeTransferFrom",
      "outputs": [],
      "stateMutability": "nonpayable",
      "type": "function"
    },
    {
      "inputs": [],
      "name": "saleType",
      "outputs": [
        {
          "internalType": "enum DimsumDaily.SaleType",
          "name": "",
          "type": "uint8"
        }
      ],
      "stateMutability": "view",
      "type": "function"
    },
    {
      "inputs": [
        {
          "internalType": "address",
          "name": "operator",
          "type": "address"
        },
        {
          "internalType": "bool",
          "name": "approved",
          "type": "bool"
        }
      ],
      "name": "setApprovalForAll",
      "outputs": [],
      "stateMutability": "nonpayable",
      "type": "function"
    },
    {
      "inputs": [
        {
          "internalType": "uint256",
          "name": "_price",
          "type": "uint256"
        }
      ],
      "name": "setPrice",
      "outputs": [],
      "stateMutability": "nonpayable",
      "type": "function"
    },
    {
      "inputs": [
        {
          "internalType": "enum DimsumDaily.SaleType",
          "name": "_saleType",
          "type": "uint8"
        }
      ],
      "name": "setSaleType",
      "outputs": [],
      "stateMutability": "nonpayable",
      "type": "function"
    },
    {
      "inputs": [
        {
          "internalType": "string",
          "name": "uri_",
          "type": "string"
        }
      ],
      "name": "setUri",
      "outputs": [],
      "stateMutability": "nonpayable",
      "type": "function"
    },
    {
      "inputs": [
        {
          "internalType": "bytes4",
          "name": "interfaceId",
          "type": "bytes4"
        }
      ],
      "name": "supportsInterface",
      "outputs": [
        {
          "internalType": "bool",
          "name": "",
          "type": "bool"
        }
      ],
      "stateMutability": "view",
      "type": "function"
    },
    {
      "inputs": [
        {
          "internalType": "uint256",
          "name": "_price",
          "type": "uint256"
        }
      ],
      "name": "switchToPublicSale",
      "outputs": [],
      "stateMutability": "nonpayable",
      "type": "function"
    },
    {
      "inputs": [],
      "name": "symbol",
      "outputs": [
        {
          "internalType": "string",
          "name": "",
          "type": "string"
        }
      ],
      "stateMutability": "view",
      "type": "function"
    },
    {
      "inputs": [
        {
          "internalType": "uint256",
          "name": "tokenId",
          "type": "uint256"
        }
      ],
      "name": "tokenURI",
      "outputs": [
        {
          "internalType": "string",
          "name": "",
          "type": "string"
        }
      ],
      "stateMutability": "view",
      "type": "function"
    },
    {
      "inputs": [],
      "name": "totalSupply",
      "outputs": [
        {
          "internalType": "uint256",
          "name": "",
          "type": "uint256"
        }
      ],
      "stateMutability": "view",
      "type": "function"
    },
    {
      "inputs": [
        {
          "internalType": "address",
          "name": "from",
          "type": "address"
        },
        {
          "internalType": "address",
          "name": "to",
          "type": "address"
        },
        {
          "internalType": "uint256",
          "name": "tokenId",
          "type": "uint256"
        }
      ],
      "name": "transferFrom",
      "outputs": [],
      "stateMutability": "nonpayable",
      "type": "function"
    },
    {
      "inputs": [
        {
          "internalType": "address",
          "name": "newOwner",
          "type": "address"
        }
      ],
      "name": "transferOwnership",
      "outputs": [],
      "stateMutability": "nonpayable",
      "type": "function"
    },
    {
      "inputs": [
        {
          "internalType": "address",
          "name": "",
          "type": "address"
        }
      ],
      "name": "whitelist",
      "outputs": [
        {
          "internalType": "bool",
          "name": "",
          "type": "bool"
        }
      ],
      "stateMutability": "view",
      "type": "function"
    },
    {
      "inputs": [],
      "name": "withdraw",
      "outputs": [],
      "stateMutability": "nonpayable",
      "type": "function"
    }
  ],
  "transactionHash": "0x5c24e223187be0048e370272b928da6a443cb66c5fb6bc81bc1b811dae5b7371",
  "args": [
    "80000000000000000",
    "some-uri"
  ],
  "numDeployments": 1,
  "solcInputHash": "0bac846e519cf70bcfcbf9fa624aca4b",
  "bytecode": "0x60806040523480156200001157600080fd5b50604051620041fd380380620041fd8339818101604052810190620000379190620004c0565b6040518060400160405280600c81526020017f44696d73756d204461696c7900000000000000000000000000000000000000008152506040518060400160405280600681526020017f44494d53554d00000000000000000000000000000000000000000000000000008152508160029080519060200190620000bb92919062000238565b508060039080519060200190620000d492919062000238565b50620000e56200016160201b60201c565b60008190555050506200010d620001016200016a60201b60201c565b6200017260201b60201c565b81600a8190555080600b90805190602001906200012c92919062000238565b507fd9659eff71087e0e5ae7a01868fb393704aec3a891860a55e69a47b9ad2f2dab60405160405180910390a150506200058a565b60006001905090565b600033905090565b6000600860009054906101000a900473ffffffffffffffffffffffffffffffffffffffff16905081600860006101000a81548173ffffffffffffffffffffffffffffffffffffffff021916908373ffffffffffffffffffffffffffffffffffffffff1602179055508173ffffffffffffffffffffffffffffffffffffffff168173ffffffffffffffffffffffffffffffffffffffff167f8be0079c531659141344cd1fd0a4f28419497f9722a3daafe3b4186f6b6457e060405160405180910390a35050565b828054620002469062000555565b90600052602060002090601f0160209004810192826200026a5760008555620002b6565b82601f106200028557805160ff1916838001178555620002b6565b82800160010185558215620002b6579182015b82811115620002b557825182559160200191906001019062000298565b5b509050620002c59190620002c9565b5090565b5b80821115620002e4576000816000905550600101620002ca565b5090565b6000604051905090565b600080fd5b600080fd5b6000819050919050565b6200031181620002fc565b81146200031d57600080fd5b50565b600081519050620003318162000306565b92915050565b600080fd5b600080fd5b6000601f19601f8301169050919050565b7f4e487b7100000000000000000000000000000000000000000000000000000000600052604160045260246000fd5b6200038c8262000341565b810181811067ffffffffffffffff82111715620003ae57620003ad62000352565b5b80604052505050565b6000620003c3620002e8565b9050620003d1828262000381565b919050565b600067ffffffffffffffff821115620003f457620003f362000352565b5b620003ff8262000341565b9050602081019050919050565b60005b838110156200042c5780820151818401526020810190506200040f565b838111156200043c576000848401525b50505050565b6000620004596200045384620003d6565b620003b7565b9050828152602081018484840111156200047857620004776200033c565b5b620004858482856200040c565b509392505050565b600082601f830112620004a557620004a462000337565b5b8151620004b784826020860162000442565b91505092915050565b60008060408385031215620004da57620004d9620002f2565b5b6000620004ea8582860162000320565b925050602083015167ffffffffffffffff8111156200050e576200050d620002f7565b5b6200051c858286016200048d565b9150509250929050565b7f4e487b7100000000000000000000000000000000000000000000000000000000600052602260045260246000fd5b600060028204905060018216806200056e57607f821691505b60208210810362000584576200058362000526565b5b50919050565b613c63806200059a6000396000f3fe6080604052600436106101d85760003560e01c80638da5cb5b11610102578063b44d737411610095578063d96a094a11610064578063d96a094a14610692578063e985e9c5146106ae578063f2fde38b146106eb578063f80f5dd514610714576101d8565b8063b44d7374146105da578063b5aaf54214610603578063b88d4fde1461062c578063c87b56dd14610655576101d8565b80639b642de1116100d15780639b642de1146105345780639db9f6fb1461055d578063a035b1fe14610586578063a22cb465146105b1576101d8565b80638da5cb5b1461047857806391b7f5ed146104a357806395d89b41146104cc5780639b19251a146104f7576101d8565b806323b872dd1161017a5780636352211e116101495780636352211e146103be57806370a08231146103fb578063715018a61461043857806378c8cda71461044f576101d8565b806323b872dd1461032a5780633ccfd60b1461035357806342842e0e1461036a5780635bcc792814610393576101d8565b8063081812fc116101b6578063081812fc1461026e578063095ea7b3146102ab57806312065fe0146102d457806318160ddd146102ff576101d8565b806301ffc9a7146101dd578063068405ae1461021a57806306fdde0314610243575b600080fd5b3480156101e957600080fd5b5061020460048036038101906101ff9190612d1f565b61073d565b6040516102119190612d67565b60405180910390f35b34801561022657600080fd5b50610241600480360381019061023c9190612f39565b61081f565b005b34801561024f57600080fd5b506102586108df565b604051610265919061300a565b60405180910390f35b34801561027a57600080fd5b5061029560048036038101906102909190613062565b610971565b6040516102a2919061309e565b60405180910390f35b3480156102b757600080fd5b506102d260048036038101906102cd91906130b9565b6109ed565b005b3480156102e057600080fd5b506102e9610af7565b6040516102f69190613108565b60405180910390f35b34801561030b57600080fd5b50610314610aff565b6040516103219190613108565b60405180910390f35b34801561033657600080fd5b50610351600480360381019061034c9190613123565b610b16565b005b34801561035f57600080fd5b50610368610b26565b005b34801561037657600080fd5b50610391600480360381019061038c9190613123565b610bff565b005b34801561039f57600080fd5b506103a8610c1f565b6040516103b591906131ed565b60405180910390f35b3480156103ca57600080fd5b506103e560048036038101906103e09190613062565b610c32565b6040516103f2919061309e565b60405180910390f35b34801561040757600080fd5b50610422600480360381019061041d9190613208565b610c48565b60405161042f9190613108565b60405180910390f35b34801561044457600080fd5b5061044d610d17565b005b34801561045b57600080fd5b5061047660048036038101906104719190613208565b610d9f565b005b34801561048457600080fd5b5061048d610f45565b60405161049a919061309e565b60405180910390f35b3480156104af57600080fd5b506104ca60048036038101906104c59190613062565b610f6f565b005b3480156104d857600080fd5b506104e1610ff5565b6040516104ee919061300a565b60405180910390f35b34801561050357600080fd5b5061051e60048036038101906105199190613208565b611087565b60405161052b9190612d67565b60405180910390f35b34801561054057600080fd5b5061055b600480360381019061055691906132ea565b6110a7565b005b34801561056957600080fd5b50610584600480360381019061057f9190613062565b61113d565b005b34801561059257600080fd5b5061059b611288565b6040516105a89190613108565b60405180910390f35b3480156105bd57600080fd5b506105d860048036038101906105d3919061335f565b61128e565b005b3480156105e657600080fd5b5061060160048036038101906105fc9190612f39565b611405565b005b34801561060f57600080fd5b5061062a600480360381019061062591906133c4565b6114c5565b005b34801561063857600080fd5b50610653600480360381019061064e9190613492565b61156e565b005b34801561066157600080fd5b5061067c60048036038101906106779190613062565b6115ea565b604051610689919061300a565b60405180910390f35b6106ac60048036038101906106a79190613062565b611688565b005b3480156106ba57600080fd5b506106d560048036038101906106d09190613515565b6117ac565b6040516106e29190612d67565b60405180910390f35b3480156106f757600080fd5b50610712600480360381019061070d9190613208565b611840565b005b34801561072057600080fd5b5061073b60048036038101906107369190613208565b611937565b005b60007f80ac58cd000000000000000000000000000000000000000000000000000000007bffffffffffffffffffffffffffffffffffffffffffffffffffffffff1916827bffffffffffffffffffffffffffffffffffffffffffffffffffffffff1916148061080857507f5b5e139f000000000000000000000000000000000000000000000000000000007bffffffffffffffffffffffffffffffffffffffffffffffffffffffff1916827bffffffffffffffffffffffffffffffffffffffffffffffffffffffff1916145b80610818575061081782611ade565b5b9050919050565b610827611b48565b73ffffffffffffffffffffffffffffffffffffffff16610845610f45565b73ffffffffffffffffffffffffffffffffffffffff161461089b576040517f08c379a0000000000000000000000000000000000000000000000000000000008152600401610892906135a1565b60405180910390fd5b60008151905060005b818110156108da576108cf8382815181106108c2576108c16135c1565b5b6020026020010151610d9f565b8060010190506108a4565b505050565b6060600280546108ee9061361f565b80601f016020809104026020016040519081016040528092919081815260200182805461091a9061361f565b80156109675780601f1061093c57610100808354040283529160200191610967565b820191906000526020600020905b81548152906001019060200180831161094a57829003601f168201915b5050505050905090565b600061097c82611b50565b6109b2576040517fcf4700e400000000000000000000000000000000000000000000000000000000815260040160405180910390fd5b6006600083815260200190815260200160002060009054906101000a900473ffffffffffffffffffffffffffffffffffffffff169050919050565b60006109f882610c32565b90508073ffffffffffffffffffffffffffffffffffffffff168373ffffffffffffffffffffffffffffffffffffffff1603610a5f576040517f943f7b8c00000000000000000000000000000000000000000000000000000000815260040160405180910390fd5b8073ffffffffffffffffffffffffffffffffffffffff16610a7e611b48565b73ffffffffffffffffffffffffffffffffffffffff1614158015610ab05750610aae81610aa9611b48565b6117ac565b155b15610ae7576040517fcfb3b94200000000000000000000000000000000000000000000000000000000815260040160405180910390fd5b610af2838383611b9e565b505050565b600047905090565b6000610b09611c50565b6001546000540303905090565b610b21838383611c59565b505050565b610b2e611b48565b73ffffffffffffffffffffffffffffffffffffffff16610b4c610f45565b73ffffffffffffffffffffffffffffffffffffffff1614610ba2576040517f08c379a0000000000000000000000000000000000000000000000000000000008152600401610b99906135a1565b60405180910390fd5b6000610bac610af7565b9050610bb6610f45565b73ffffffffffffffffffffffffffffffffffffffff166108fc829081150290604051600060405180830381858888f19350505050158015610bfb573d6000803e3d6000fd5b5050565b610c1a8383836040518060200160405280600081525061156e565b505050565b600c60009054906101000a900460ff1681565b6000610c3d8261210d565b600001519050919050565b60008073ffffffffffffffffffffffffffffffffffffffff168273ffffffffffffffffffffffffffffffffffffffff1603610caf576040517f8f4eb60400000000000000000000000000000000000000000000000000000000815260040160405180910390fd5b600560008373ffffffffffffffffffffffffffffffffffffffff1673ffffffffffffffffffffffffffffffffffffffff16815260200190815260200160002060000160009054906101000a900467ffffffffffffffff1667ffffffffffffffff169050919050565b610d1f611b48565b73ffffffffffffffffffffffffffffffffffffffff16610d3d610f45565b73ffffffffffffffffffffffffffffffffffffffff1614610d93576040517f08c379a0000000000000000000000000000000000000000000000000000000008152600401610d8a906135a1565b60405180910390fd5b610d9d600061239c565b565b610da7611b48565b73ffffffffffffffffffffffffffffffffffffffff16610dc5610f45565b73ffffffffffffffffffffffffffffffffffffffff1614610e1b576040517f08c379a0000000000000000000000000000000000000000000000000000000008152600401610e12906135a1565b60405180910390fd5b600960008273ffffffffffffffffffffffffffffffffffffffff1673ffffffffffffffffffffffffffffffffffffffff16815260200190815260200160002060009054906101000a900460ff16610ea7576040517f08c379a0000000000000000000000000000000000000000000000000000000008152600401610e9e9061369c565b60405180910390fd5b6000600960008373ffffffffffffffffffffffffffffffffffffffff1673ffffffffffffffffffffffffffffffffffffffff16815260200190815260200160002060006101000a81548160ff0219169083151502179055508073ffffffffffffffffffffffffffffffffffffffff167f51085ddf9ebdded84b76e829eb58c4078e4b5bdf97d9a94723f336039da4679160405160405180910390a250565b6000600860009054906101000a900473ffffffffffffffffffffffffffffffffffffffff16905090565b610f77611b48565b73ffffffffffffffffffffffffffffffffffffffff16610f95610f45565b73ffffffffffffffffffffffffffffffffffffffff1614610feb576040517f08c379a0000000000000000000000000000000000000000000000000000000008152600401610fe2906135a1565b60405180910390fd5b80600a8190555050565b6060600380546110049061361f565b80601f01602080910402602001604051908101604052809291908181526020018280546110309061361f565b801561107d5780601f106110525761010080835404028352916020019161107d565b820191906000526020600020905b81548152906001019060200180831161106057829003601f168201915b5050505050905090565b60096020528060005260406000206000915054906101000a900460ff1681565b6110af611b48565b73ffffffffffffffffffffffffffffffffffffffff166110cd610f45565b73ffffffffffffffffffffffffffffffffffffffff1614611123576040517f08c379a000000000000000000000000000000000000000000000000000000000815260040161111a906135a1565b60405180910390fd5b80600b9080519060200190611139929190612bcd565b5050565b611145611b48565b73ffffffffffffffffffffffffffffffffffffffff16611163610f45565b73ffffffffffffffffffffffffffffffffffffffff16146111b9576040517f08c379a00000000000000000000000000000000000000000000000000000000081526004016111b0906135a1565b60405180910390fd5b600060018111156111cd576111cc613176565b5b600c60009054906101000a900460ff1660018111156111ef576111ee613176565b5b1461122f576040517f08c379a000000000000000000000000000000000000000000000000000000000815260040161122690613708565b60405180910390fd5b60008111611272576040517f08c379a000000000000000000000000000000000000000000000000000000000815260040161126990613774565b60405180910390fd5b61127b81610f6f565b61128560016114c5565b50565b600a5481565b611296611b48565b73ffffffffffffffffffffffffffffffffffffffff168273ffffffffffffffffffffffffffffffffffffffff16036112fa576040517fb06307db00000000000000000000000000000000000000000000000000000000815260040160405180910390fd5b8060076000611307611b48565b73ffffffffffffffffffffffffffffffffffffffff1673ffffffffffffffffffffffffffffffffffffffff16815260200190815260200160002060008473ffffffffffffffffffffffffffffffffffffffff1673ffffffffffffffffffffffffffffffffffffffff16815260200190815260200160002060006101000a81548160ff0219169083151502179055508173ffffffffffffffffffffffffffffffffffffffff166113b4611b48565b73ffffffffffffffffffffffffffffffffffffffff167f17307eab39ab6107e8899845ad3d59bd9653f200f220920489ca2b5937696c31836040516113f99190612d67565b60405180910390a35050565b61140d611b48565b73ffffffffffffffffffffffffffffffffffffffff1661142b610f45565b73ffffffffffffffffffffffffffffffffffffffff1614611481576040517f08c379a0000000000000000000000000000000000000000000000000000000008152600401611478906135a1565b60405180910390fd5b60008151905060005b818110156114c0576114b58382815181106114a8576114a76135c1565b5b6020026020010151611937565b80600101905061148a565b505050565b6114cd611b48565b73ffffffffffffffffffffffffffffffffffffffff166114eb610f45565b73ffffffffffffffffffffffffffffffffffffffff1614611541576040517f08c379a0000000000000000000000000000000000000000000000000000000008152600401611538906135a1565b60405180910390fd5b80600c60006101000a81548160ff0219169083600181111561156657611565613176565b5b021790555050565b611579848484611c59565b6115988373ffffffffffffffffffffffffffffffffffffffff16612462565b80156115ad57506115ab84848484612485565b155b156115e4576040517fd1a57ed600000000000000000000000000000000000000000000000000000000815260040160405180910390fd5b50505050565b60606115f582611b50565b61162b576040517fa14c4b5000000000000000000000000000000000000000000000000000000000815260040160405180910390fd5b60006116356125d5565b905060008151036116555760405180602001604052806000815250611680565b8061165f84612667565b6040516020016116709291906137d0565b6040516020818303038152906040525b915050919050565b6000600181111561169c5761169b613176565b5b600c60009054906101000a900460ff1660018111156116be576116bd613176565b5b0361175057600960003373ffffffffffffffffffffffffffffffffffffffff1673ffffffffffffffffffffffffffffffffffffffff16815260200190815260200160002060009054906101000a900460ff1661174f576040517f08c379a000000000000000000000000000000000000000000000000000000000815260040161174690613840565b60405180910390fd5b5b600a548161175e919061388f565b341461179f576040517f08c379a000000000000000000000000000000000000000000000000000000000815260040161179690613774565b60405180910390fd5b6117a933826127c7565b50565b6000600760008473ffffffffffffffffffffffffffffffffffffffff1673ffffffffffffffffffffffffffffffffffffffff16815260200190815260200160002060008373ffffffffffffffffffffffffffffffffffffffff1673ffffffffffffffffffffffffffffffffffffffff16815260200190815260200160002060009054906101000a900460ff16905092915050565b611848611b48565b73ffffffffffffffffffffffffffffffffffffffff16611866610f45565b73ffffffffffffffffffffffffffffffffffffffff16146118bc576040517f08c379a00000000000000000000000000000000000000000000000000000000081526004016118b3906135a1565b60405180910390fd5b600073ffffffffffffffffffffffffffffffffffffffff168173ffffffffffffffffffffffffffffffffffffffff160361192b576040517f08c379a00000000000000000000000000000000000000000000000000000000081526004016119229061395b565b60405180910390fd5b6119348161239c565b50565b61193f611b48565b73ffffffffffffffffffffffffffffffffffffffff1661195d610f45565b73ffffffffffffffffffffffffffffffffffffffff16146119b3576040517f08c379a00000000000000000000000000000000000000000000000000000000081526004016119aa906135a1565b60405180910390fd5b600960008273ffffffffffffffffffffffffffffffffffffffff1673ffffffffffffffffffffffffffffffffffffffff16815260200190815260200160002060009054906101000a900460ff1615611a40576040517f08c379a0000000000000000000000000000000000000000000000000000000008152600401611a37906139c7565b60405180910390fd5b6001600960008373ffffffffffffffffffffffffffffffffffffffff1673ffffffffffffffffffffffffffffffffffffffff16815260200190815260200160002060006101000a81548160ff0219169083151502179055508073ffffffffffffffffffffffffffffffffffffffff167faab7954e9d246b167ef88aeddad35209ca2489d95a8aeb59e288d9b19fae5a5460405160405180910390a250565b60007f01ffc9a7000000000000000000000000000000000000000000000000000000007bffffffffffffffffffffffffffffffffffffffffffffffffffffffff1916827bffffffffffffffffffffffffffffffffffffffffffffffffffffffff1916149050919050565b600033905090565b600081611b5b611c50565b11158015611b6a575060005482105b8015611b97575060046000838152602001908152602001600020600001601c9054906101000a900460ff16155b9050919050565b826006600084815260200190815260200160002060006101000a81548173ffffffffffffffffffffffffffffffffffffffff021916908373ffffffffffffffffffffffffffffffffffffffff160217905550818373ffffffffffffffffffffffffffffffffffffffff168273ffffffffffffffffffffffffffffffffffffffff167f8c5be1e5ebec7d5bd14f71427d1e84f3dd0314c0f7b2291e5b200ac8c7c3b92560405160405180910390a4505050565b60006001905090565b6000611c648261210d565b90508373ffffffffffffffffffffffffffffffffffffffff16816000015173ffffffffffffffffffffffffffffffffffffffff1614611ccf576040517fa114810000000000000000000000000000000000000000000000000000000000815260040160405180910390fd5b60008473ffffffffffffffffffffffffffffffffffffffff16611cf0611b48565b73ffffffffffffffffffffffffffffffffffffffff161480611d1f5750611d1e85611d19611b48565b6117ac565b5b80611d645750611d2d611b48565b73ffffffffffffffffffffffffffffffffffffffff16611d4c84610971565b73ffffffffffffffffffffffffffffffffffffffff16145b905080611d9d576040517f59c896be00000000000000000000000000000000000000000000000000000000815260040160405180910390fd5b600073ffffffffffffffffffffffffffffffffffffffff168473ffffffffffffffffffffffffffffffffffffffff1603611e03576040517fea553b3400000000000000000000000000000000000000000000000000000000815260040160405180910390fd5b611e1085858560016127e5565b611e1c60008487611b9e565b6001600560008773ffffffffffffffffffffffffffffffffffffffff1673ffffffffffffffffffffffffffffffffffffffff16815260200190815260200160002060000160008282829054906101000a900467ffffffffffffffff160392506101000a81548167ffffffffffffffff021916908367ffffffffffffffff1602179055506001600560008673ffffffffffffffffffffffffffffffffffffffff1673ffffffffffffffffffffffffffffffffffffffff16815260200190815260200160002060000160008282829054906101000a900467ffffffffffffffff160192506101000a81548167ffffffffffffffff021916908367ffffffffffffffff1602179055506000600460008581526020019081526020016000209050848160000160006101000a81548173ffffffffffffffffffffffffffffffffffffffff021916908373ffffffffffffffffffffffffffffffffffffffff160217905550428160000160146101000a81548167ffffffffffffffff021916908367ffffffffffffffff16021790555060006001850190506000600460008381526020019081526020016000209050600073ffffffffffffffffffffffffffffffffffffffff168160000160009054906101000a900473ffffffffffffffffffffffffffffffffffffffff1673ffffffffffffffffffffffffffffffffffffffff160361209b57600054821461209a57878160000160006101000a81548173ffffffffffffffffffffffffffffffffffffffff021916908373ffffffffffffffffffffffffffffffffffffffff16021790555084602001518160000160146101000a81548167ffffffffffffffff021916908367ffffffffffffffff1602179055505b5b505050828473ffffffffffffffffffffffffffffffffffffffff168673ffffffffffffffffffffffffffffffffffffffff167fddf252ad1be2c89b69c2b068fc378daa952ba7f163c4a11628f55a4df523b3ef60405160405180910390a461210685858560016127eb565b5050505050565b612115612c53565b600082905080612123611c50565b11158015612132575060005481105b15612365576000600460008381526020019081526020016000206040518060600160405290816000820160009054906101000a900473ffffffffffffffffffffffffffffffffffffffff1673ffffffffffffffffffffffffffffffffffffffff1673ffffffffffffffffffffffffffffffffffffffff1681526020016000820160149054906101000a900467ffffffffffffffff1667ffffffffffffffff1667ffffffffffffffff16815260200160008201601c9054906101000a900460ff1615151515815250509050806040015161236357600073ffffffffffffffffffffffffffffffffffffffff16816000015173ffffffffffffffffffffffffffffffffffffffff1614612247578092505050612397565b5b60011561236257818060019003925050600460008381526020019081526020016000206040518060600160405290816000820160009054906101000a900473ffffffffffffffffffffffffffffffffffffffff1673ffffffffffffffffffffffffffffffffffffffff1673ffffffffffffffffffffffffffffffffffffffff1681526020016000820160149054906101000a900467ffffffffffffffff1667ffffffffffffffff1667ffffffffffffffff16815260200160008201601c9054906101000a900460ff1615151515815250509050600073ffffffffffffffffffffffffffffffffffffffff16816000015173ffffffffffffffffffffffffffffffffffffffff161461235d578092505050612397565b612248565b5b505b6040517fdf2d9b4200000000000000000000000000000000000000000000000000000000815260040160405180910390fd5b919050565b6000600860009054906101000a900473ffffffffffffffffffffffffffffffffffffffff16905081600860006101000a81548173ffffffffffffffffffffffffffffffffffffffff021916908373ffffffffffffffffffffffffffffffffffffffff1602179055508173ffffffffffffffffffffffffffffffffffffffff168173ffffffffffffffffffffffffffffffffffffffff167f8be0079c531659141344cd1fd0a4f28419497f9722a3daafe3b4186f6b6457e060405160405180910390a35050565b6000808273ffffffffffffffffffffffffffffffffffffffff163b119050919050565b60008373ffffffffffffffffffffffffffffffffffffffff1663150b7a026124ab611b48565b8786866040518563ffffffff1660e01b81526004016124cd9493929190613a3c565b6020604051808303816000875af192505050801561250957506040513d601f19601f820116820180604052508101906125069190613a9d565b60015b612582573d8060008114612539576040519150601f19603f3d011682016040523d82523d6000602084013e61253e565b606091505b50600081510361257a576040517fd1a57ed600000000000000000000000000000000000000000000000000000000815260040160405180910390fd5b805181602001fd5b63150b7a0260e01b7bffffffffffffffffffffffffffffffffffffffffffffffffffffffff1916817bffffffffffffffffffffffffffffffffffffffffffffffffffffffff191614915050949350505050565b6060600b80546125e49061361f565b80601f01602080910402602001604051908101604052809291908181526020018280546126109061361f565b801561265d5780601f106126325761010080835404028352916020019161265d565b820191906000526020600020905b81548152906001019060200180831161264057829003601f168201915b5050505050905090565b6060600082036126ae576040518060400160405280600181526020017f300000000000000000000000000000000000000000000000000000000000000081525090506127c2565b600082905060005b600082146126e05780806126c990613aca565b915050600a826126d99190613b41565b91506126b6565b60008167ffffffffffffffff8111156126fc576126fb612d98565b5b6040519080825280601f01601f19166020018201604052801561272e5781602001600182028036833780820191505090505b5090505b600085146127bb576001826127479190613b72565b9150600a856127569190613ba6565b60306127629190613bd7565b60f81b818381518110612778576127776135c1565b5b60200101907effffffffffffffffffffffffffffffffffffffffffffffffffffffffffffff1916908160001a905350600a856127b49190613b41565b9450612732565b8093505050505b919050565b6127e18282604051806020016040528060008152506127f1565b5050565b50505050565b50505050565b6127fe8383836001612803565b505050565b600080549050600073ffffffffffffffffffffffffffffffffffffffff168573ffffffffffffffffffffffffffffffffffffffff160361286f576040517f2e07630000000000000000000000000000000000000000000000000000000000815260040160405180910390fd5b600084036128a9576040517fb562e8dd00000000000000000000000000000000000000000000000000000000815260040160405180910390fd5b6128b660008683876127e5565b83600560008773ffffffffffffffffffffffffffffffffffffffff1673ffffffffffffffffffffffffffffffffffffffff16815260200190815260200160002060000160008282829054906101000a900467ffffffffffffffff160192506101000a81548167ffffffffffffffff021916908367ffffffffffffffff16021790555083600560008773ffffffffffffffffffffffffffffffffffffffff1673ffffffffffffffffffffffffffffffffffffffff16815260200190815260200160002060000160088282829054906101000a900467ffffffffffffffff160192506101000a81548167ffffffffffffffff021916908367ffffffffffffffff160217905550846004600083815260200190815260200160002060000160006101000a81548173ffffffffffffffffffffffffffffffffffffffff021916908373ffffffffffffffffffffffffffffffffffffffff160217905550426004600083815260200190815260200160002060000160146101000a81548167ffffffffffffffff021916908367ffffffffffffffff160217905550600081905060008582019050838015612a805750612a7f8773ffffffffffffffffffffffffffffffffffffffff16612462565b5b15612b45575b818773ffffffffffffffffffffffffffffffffffffffff16600073ffffffffffffffffffffffffffffffffffffffff167fddf252ad1be2c89b69c2b068fc378daa952ba7f163c4a11628f55a4df523b3ef60405160405180910390a4612af56000888480600101955088612485565b612b2b576040517fd1a57ed600000000000000000000000000000000000000000000000000000000815260040160405180910390fd5b808203612a86578260005414612b4057600080fd5b612bb0565b5b818060010192508773ffffffffffffffffffffffffffffffffffffffff16600073ffffffffffffffffffffffffffffffffffffffff167fddf252ad1be2c89b69c2b068fc378daa952ba7f163c4a11628f55a4df523b3ef60405160405180910390a4808203612b46575b816000819055505050612bc660008683876127eb565b5050505050565b828054612bd99061361f565b90600052602060002090601f016020900481019282612bfb5760008555612c42565b82601f10612c1457805160ff1916838001178555612c42565b82800160010185558215612c42579182015b82811115612c41578251825591602001919060010190612c26565b5b509050612c4f9190612c96565b5090565b6040518060600160405280600073ffffffffffffffffffffffffffffffffffffffff168152602001600067ffffffffffffffff1681526020016000151581525090565b5b80821115612caf576000816000905550600101612c97565b5090565b6000604051905090565b600080fd5b600080fd5b60007fffffffff0000000000000000000000000000000000000000000000000000000082169050919050565b612cfc81612cc7565b8114612d0757600080fd5b50565b600081359050612d1981612cf3565b92915050565b600060208284031215612d3557612d34612cbd565b5b6000612d4384828501612d0a565b91505092915050565b60008115159050919050565b612d6181612d4c565b82525050565b6000602082019050612d7c6000830184612d58565b92915050565b600080fd5b6000601f19601f8301169050919050565b7f4e487b7100000000000000000000000000000000000000000000000000000000600052604160045260246000fd5b612dd082612d87565b810181811067ffffffffffffffff82111715612def57612dee612d98565b5b80604052505050565b6000612e02612cb3565b9050612e0e8282612dc7565b919050565b600067ffffffffffffffff821115612e2e57612e2d612d98565b5b602082029050602081019050919050565b600080fd5b600073ffffffffffffffffffffffffffffffffffffffff82169050919050565b6000612e6f82612e44565b9050919050565b612e7f81612e64565b8114612e8a57600080fd5b50565b600081359050612e9c81612e76565b92915050565b6000612eb5612eb084612e13565b612df8565b90508083825260208201905060208402830185811115612ed857612ed7612e3f565b5b835b81811015612f015780612eed8882612e8d565b845260208401935050602081019050612eda565b5050509392505050565b600082601f830112612f2057612f1f612d82565b5b8135612f30848260208601612ea2565b91505092915050565b600060208284031215612f4f57612f4e612cbd565b5b600082013567ffffffffffffffff811115612f6d57612f6c612cc2565b5b612f7984828501612f0b565b91505092915050565b600081519050919050565b600082825260208201905092915050565b60005b83811015612fbc578082015181840152602081019050612fa1565b83811115612fcb576000848401525b50505050565b6000612fdc82612f82565b612fe68185612f8d565b9350612ff6818560208601612f9e565b612fff81612d87565b840191505092915050565b600060208201905081810360008301526130248184612fd1565b905092915050565b6000819050919050565b61303f8161302c565b811461304a57600080fd5b50565b60008135905061305c81613036565b92915050565b60006020828403121561307857613077612cbd565b5b60006130868482850161304d565b91505092915050565b61309881612e64565b82525050565b60006020820190506130b3600083018461308f565b92915050565b600080604083850312156130d0576130cf612cbd565b5b60006130de85828601612e8d565b92505060206130ef8582860161304d565b9150509250929050565b6131028161302c565b82525050565b600060208201905061311d60008301846130f9565b92915050565b60008060006060848603121561313c5761313b612cbd565b5b600061314a86828701612e8d565b935050602061315b86828701612e8d565b925050604061316c8682870161304d565b9150509250925092565b7f4e487b7100000000000000000000000000000000000000000000000000000000600052602160045260246000fd5b600281106131b6576131b5613176565b5b50565b60008190506131c7826131a5565b919050565b60006131d7826131b9565b9050919050565b6131e7816131cc565b82525050565b600060208201905061320260008301846131de565b92915050565b60006020828403121561321e5761321d612cbd565b5b600061322c84828501612e8d565b91505092915050565b600080fd5b600067ffffffffffffffff82111561325557613254612d98565b5b61325e82612d87565b9050602081019050919050565b82818337600083830152505050565b600061328d6132888461323a565b612df8565b9050828152602081018484840111156132a9576132a8613235565b5b6132b484828561326b565b509392505050565b600082601f8301126132d1576132d0612d82565b5b81356132e184826020860161327a565b91505092915050565b600060208284031215613300576132ff612cbd565b5b600082013567ffffffffffffffff81111561331e5761331d612cc2565b5b61332a848285016132bc565b91505092915050565b61333c81612d4c565b811461334757600080fd5b50565b60008135905061335981613333565b92915050565b6000806040838503121561337657613375612cbd565b5b600061338485828601612e8d565b92505060206133958582860161334a565b9150509250929050565b600281106133ac57600080fd5b50565b6000813590506133be8161339f565b92915050565b6000602082840312156133da576133d9612cbd565b5b60006133e8848285016133af565b91505092915050565b600067ffffffffffffffff82111561340c5761340b612d98565b5b61341582612d87565b9050602081019050919050565b6000613435613430846133f1565b612df8565b90508281526020810184848401111561345157613450613235565b5b61345c84828561326b565b509392505050565b600082601f83011261347957613478612d82565b5b8135613489848260208601613422565b91505092915050565b600080600080608085870312156134ac576134ab612cbd565b5b60006134ba87828801612e8d565b94505060206134cb87828801612e8d565b93505060406134dc8782880161304d565b925050606085013567ffffffffffffffff8111156134fd576134fc612cc2565b5b61350987828801613464565b91505092959194509250565b6000806040838503121561352c5761352b612cbd565b5b600061353a85828601612e8d565b925050602061354b85828601612e8d565b9150509250929050565b7f4f776e61626c653a2063616c6c6572206973206e6f7420746865206f776e6572600082015250565b600061358b602083612f8d565b915061359682613555565b602082019050919050565b600060208201905081810360008301526135ba8161357e565b9050919050565b7f4e487b7100000000000000000000000000000000000000000000000000000000600052603260045260246000fd5b7f4e487b7100000000000000000000000000000000000000000000000000000000600052602260045260246000fd5b6000600282049050600182168061363757607f821691505b60208210810361364a576136496135f0565b5b50919050565b7f574c3a206163636f756e74206e6f742077686974656c69737465640000000000600082015250565b6000613686601b83612f8d565b915061369182613650565b602082019050919050565b600060208201905081810360008301526136b581613679565b9050919050565b7f416c726561647920696e207075626c69632073616c6500000000000000000000600082015250565b60006136f2601683612f8d565b91506136fd826136bc565b602082019050919050565b60006020820190508181036000830152613721816136e5565b9050919050565b7f496e76616c696420707269636500000000000000000000000000000000000000600082015250565b600061375e600d83612f8d565b915061376982613728565b602082019050919050565b6000602082019050818103600083015261378d81613751565b9050919050565b600081905092915050565b60006137aa82612f82565b6137b48185613794565b93506137c4818560208601612f9e565b80840191505092915050565b60006137dc828561379f565b91506137e8828461379f565b91508190509392505050565b7f596f7520617265206e6f742077686974656c6973746564000000000000000000600082015250565b600061382a601783612f8d565b9150613835826137f4565b602082019050919050565b600060208201905081810360008301526138598161381d565b9050919050565b7f4e487b7100000000000000000000000000000000000000000000000000000000600052601160045260246000fd5b600061389a8261302c565b91506138a58361302c565b9250817fffffffffffffffffffffffffffffffffffffffffffffffffffffffffffffffff04831182151516156138de576138dd613860565b5b828202905092915050565b7f4f776e61626c653a206e6577206f776e657220697320746865207a65726f206160008201527f6464726573730000000000000000000000000000000000000000000000000000602082015250565b6000613945602683612f8d565b9150613950826138e9565b604082019050919050565b6000602082019050818103600083015261397481613938565b9050919050565b7f574c3a206163636f756e7420616c72656164792077686974656c697374656400600082015250565b60006139b1601f83612f8d565b91506139bc8261397b565b602082019050919050565b600060208201905081810360008301526139e0816139a4565b9050919050565b600081519050919050565b600082825260208201905092915050565b6000613a0e826139e7565b613a1881856139f2565b9350613a28818560208601612f9e565b613a3181612d87565b840191505092915050565b6000608082019050613a51600083018761308f565b613a5e602083018661308f565b613a6b60408301856130f9565b8181036060830152613a7d8184613a03565b905095945050505050565b600081519050613a9781612cf3565b92915050565b600060208284031215613ab357613ab2612cbd565b5b6000613ac184828501613a88565b91505092915050565b6000613ad58261302c565b91507fffffffffffffffffffffffffffffffffffffffffffffffffffffffffffffffff8203613b0757613b06613860565b5b600182019050919050565b7f4e487b7100000000000000000000000000000000000000000000000000000000600052601260045260246000fd5b6000613b4c8261302c565b9150613b578361302c565b925082613b6757613b66613b12565b5b828204905092915050565b6000613b7d8261302c565b9150613b888361302c565b925082821015613b9b57613b9a613860565b5b828203905092915050565b6000613bb18261302c565b9150613bbc8361302c565b925082613bcc57613bcb613b12565b5b828206905092915050565b6000613be28261302c565b9150613bed8361302c565b9250827fffffffffffffffffffffffffffffffffffffffffffffffffffffffffffffffff03821115613c2257613c21613860565b5b82820190509291505056fea2646970667358221220a1a6a824af8f7937235cfb7a42c314f1b9016426af48049989a55f0abbfe746e64736f6c634300080d0033",
  "devdoc": {
    "kind": "dev",
    "methods": {
      "approve(address,uint256)": {
        "details": "See {IERC721-approve}."
      },
      "balanceOf(address)": {
        "details": "See {IERC721-balanceOf}."
      },
      "getApproved(uint256)": {
        "details": "See {IERC721-getApproved}."
      },
      "isApprovedForAll(address,address)": {
        "details": "See {IERC721-isApprovedForAll}."
      },
      "name()": {
        "details": "See {IERC721Metadata-name}."
      },
      "owner()": {
        "details": "Returns the address of the current owner."
      },
      "ownerOf(uint256)": {
        "details": "See {IERC721-ownerOf}."
      },
      "renounceOwnership()": {
        "details": "Leaves the contract without owner. It will not be possible to call `onlyOwner` functions anymore. Can only be called by the current owner. NOTE: Renouncing ownership will leave the contract without an owner, thereby removing any functionality that is only available to the owner."
      },
      "safeTransferFrom(address,address,uint256)": {
        "details": "See {IERC721-safeTransferFrom}."
      },
      "safeTransferFrom(address,address,uint256,bytes)": {
        "details": "See {IERC721-safeTransferFrom}."
      },
      "setApprovalForAll(address,bool)": {
        "details": "See {IERC721-setApprovalForAll}."
      },
      "supportsInterface(bytes4)": {
        "details": "See {IERC165-supportsInterface}."
      },
      "symbol()": {
        "details": "See {IERC721Metadata-symbol}."
      },
      "tokenURI(uint256)": {
        "details": "See {IERC721Metadata-tokenURI}."
      },
      "totalSupply()": {
        "details": "Burned tokens are calculated here, use _totalMinted() if you want to count just minted tokens."
      },
      "transferFrom(address,address,uint256)": {
        "details": "See {IERC721-transferFrom}."
      },
      "transferOwnership(address)": {
        "details": "Transfers ownership of the contract to a new account (`newOwner`). Can only be called by the current owner."
      }
    },
    "version": 1
  },
  "userdoc": {
    "kind": "user",
    "methods": {},
    "version": 1
  },
  "storageLayout": {
    "storage": [
      {
        "astId": 1223,
        "contract": "contracts/DimsumDaily.sol:DimsumDaily",
        "label": "_currentIndex",
        "offset": 0,
        "slot": "0",
        "type": "t_uint256"
      },
      {
        "astId": 1225,
        "contract": "contracts/DimsumDaily.sol:DimsumDaily",
        "label": "_burnCounter",
        "offset": 0,
        "slot": "1",
        "type": "t_uint256"
      },
      {
        "astId": 1227,
        "contract": "contracts/DimsumDaily.sol:DimsumDaily",
        "label": "_name",
        "offset": 0,
        "slot": "2",
        "type": "t_string_storage"
      },
      {
        "astId": 1229,
        "contract": "contracts/DimsumDaily.sol:DimsumDaily",
        "label": "_symbol",
        "offset": 0,
        "slot": "3",
        "type": "t_string_storage"
      },
      {
        "astId": 1234,
        "contract": "contracts/DimsumDaily.sol:DimsumDaily",
        "label": "_ownerships",
        "offset": 0,
        "slot": "4",
        "type": "t_mapping(t_uint256,t_struct(TokenOwnership)1212_storage)"
      },
      {
        "astId": 1239,
        "contract": "contracts/DimsumDaily.sol:DimsumDaily",
        "label": "_addressData",
        "offset": 0,
        "slot": "5",
        "type": "t_mapping(t_address,t_struct(AddressData)1221_storage)"
      },
      {
        "astId": 1243,
        "contract": "contracts/DimsumDaily.sol:DimsumDaily",
        "label": "_tokenApprovals",
        "offset": 0,
        "slot": "6",
        "type": "t_mapping(t_uint256,t_address)"
      },
      {
        "astId": 1249,
        "contract": "contracts/DimsumDaily.sol:DimsumDaily",
        "label": "_operatorApprovals",
        "offset": 0,
        "slot": "7",
        "type": "t_mapping(t_address,t_mapping(t_address,t_bool))"
      },
      {
        "astId": 7,
        "contract": "contracts/DimsumDaily.sol:DimsumDaily",
        "label": "_owner",
        "offset": 0,
        "slot": "8",
        "type": "t_address"
      },
      {
        "astId": 1029,
        "contract": "contracts/DimsumDaily.sol:DimsumDaily",
        "label": "whitelist",
        "offset": 0,
        "slot": "9",
        "type": "t_mapping(t_address,t_bool)"
      },
      {
        "astId": 831,
        "contract": "contracts/DimsumDaily.sol:DimsumDaily",
        "label": "price",
        "offset": 0,
        "slot": "10",
        "type": "t_uint256"
      },
      {
        "astId": 833,
        "contract": "contracts/DimsumDaily.sol:DimsumDaily",
        "label": "_uri",
        "offset": 0,
        "slot": "11",
        "type": "t_string_storage"
      },
      {
        "astId": 839,
        "contract": "contracts/DimsumDaily.sol:DimsumDaily",
        "label": "saleType",
        "offset": 0,
        "slot": "12",
        "type": "t_enum(SaleType)836"
      }
    ],
    "types": {
      "t_address": {
        "encoding": "inplace",
        "label": "address",
        "numberOfBytes": "20"
      },
      "t_bool": {
        "encoding": "inplace",
        "label": "bool",
        "numberOfBytes": "1"
      },
      "t_enum(SaleType)836": {
        "encoding": "inplace",
        "label": "enum DimsumDaily.SaleType",
        "numberOfBytes": "1"
      },
      "t_mapping(t_address,t_bool)": {
        "encoding": "mapping",
        "key": "t_address",
        "label": "mapping(address => bool)",
        "numberOfBytes": "32",
        "value": "t_bool"
      },
      "t_mapping(t_address,t_mapping(t_address,t_bool))": {
        "encoding": "mapping",
        "key": "t_address",
        "label": "mapping(address => mapping(address => bool))",
        "numberOfBytes": "32",
        "value": "t_mapping(t_address,t_bool)"
      },
      "t_mapping(t_address,t_struct(AddressData)1221_storage)": {
        "encoding": "mapping",
        "key": "t_address",
        "label": "mapping(address => struct ERC721A.AddressData)",
        "numberOfBytes": "32",
        "value": "t_struct(AddressData)1221_storage"
      },
      "t_mapping(t_uint256,t_address)": {
        "encoding": "mapping",
        "key": "t_uint256",
        "label": "mapping(uint256 => address)",
        "numberOfBytes": "32",
        "value": "t_address"
      },
      "t_mapping(t_uint256,t_struct(TokenOwnership)1212_storage)": {
        "encoding": "mapping",
        "key": "t_uint256",
        "label": "mapping(uint256 => struct ERC721A.TokenOwnership)",
        "numberOfBytes": "32",
        "value": "t_struct(TokenOwnership)1212_storage"
      },
      "t_string_storage": {
        "encoding": "bytes",
        "label": "string",
        "numberOfBytes": "32"
      },
      "t_struct(AddressData)1221_storage": {
        "encoding": "inplace",
        "label": "struct ERC721A.AddressData",
        "members": [
          {
            "astId": 1214,
            "contract": "contracts/DimsumDaily.sol:DimsumDaily",
            "label": "balance",
            "offset": 0,
            "slot": "0",
            "type": "t_uint64"
          },
          {
            "astId": 1216,
            "contract": "contracts/DimsumDaily.sol:DimsumDaily",
            "label": "numberMinted",
            "offset": 8,
            "slot": "0",
            "type": "t_uint64"
          },
          {
            "astId": 1218,
            "contract": "contracts/DimsumDaily.sol:DimsumDaily",
            "label": "numberBurned",
            "offset": 16,
            "slot": "0",
            "type": "t_uint64"
          },
          {
            "astId": 1220,
            "contract": "contracts/DimsumDaily.sol:DimsumDaily",
            "label": "aux",
            "offset": 24,
            "slot": "0",
            "type": "t_uint64"
          }
        ],
        "numberOfBytes": "32"
      },
      "t_struct(TokenOwnership)1212_storage": {
        "encoding": "inplace",
        "label": "struct ERC721A.TokenOwnership",
        "members": [
          {
            "astId": 1207,
            "contract": "contracts/DimsumDaily.sol:DimsumDaily",
            "label": "addr",
            "offset": 0,
            "slot": "0",
            "type": "t_address"
          },
          {
            "astId": 1209,
            "contract": "contracts/DimsumDaily.sol:DimsumDaily",
            "label": "startTimestamp",
            "offset": 20,
            "slot": "0",
            "type": "t_uint64"
          },
          {
            "astId": 1211,
            "contract": "contracts/DimsumDaily.sol:DimsumDaily",
            "label": "burned",
            "offset": 28,
            "slot": "0",
            "type": "t_bool"
          }
        ],
        "numberOfBytes": "32"
      },
      "t_uint256": {
        "encoding": "inplace",
        "label": "uint256",
        "numberOfBytes": "32"
      },
      "t_uint64": {
        "encoding": "inplace",
        "label": "uint64",
        "numberOfBytes": "8"
      }
    }
  }
}